{
  "_format": "hh-sol-artifact-1",
  "contractName": "realEstateNft",
  "sourceName": "contracts/realEstateNft.sol",
  "abi": [
    {
      "inputs": [],
      "stateMutability": "nonpayable",
      "type": "constructor"
    },
    {
      "anonymous": false,
      "inputs": [
        {
          "indexed": true,
          "internalType": "address",
          "name": "owner",
          "type": "address"
        },
        {
          "indexed": true,
          "internalType": "address",
          "name": "approved",
          "type": "address"
        },
        {
          "indexed": true,
          "internalType": "uint256",
          "name": "tokenId",
          "type": "uint256"
        }
      ],
      "name": "Approval",
      "type": "event"
    },
    {
      "anonymous": false,
      "inputs": [
        {
          "indexed": true,
          "internalType": "address",
          "name": "owner",
          "type": "address"
        },
        {
          "indexed": true,
          "internalType": "address",
          "name": "operator",
          "type": "address"
        },
        {
          "indexed": false,
          "internalType": "bool",
          "name": "approved",
          "type": "bool"
        }
      ],
      "name": "ApprovalForAll",
      "type": "event"
    },
    {
      "anonymous": false,
      "inputs": [
        {
          "indexed": false,
          "internalType": "uint256",
          "name": "_fromTokenId",
          "type": "uint256"
        },
        {
          "indexed": false,
          "internalType": "uint256",
          "name": "_toTokenId",
          "type": "uint256"
        }
      ],
      "name": "BatchMetadataUpdate",
      "type": "event"
    },
    {
      "anonymous": false,
      "inputs": [
        {
          "indexed": false,
          "internalType": "uint256",
          "name": "_tokenId",
          "type": "uint256"
        }
      ],
      "name": "MetadataUpdate",
      "type": "event"
    },
    {
      "anonymous": false,
      "inputs": [
        {
          "indexed": false,
          "internalType": "uint256",
          "name": "frunchiseNo",
          "type": "uint256"
        },
        {
          "indexed": false,
          "internalType": "address",
          "name": "dealerEthereuem_address",
          "type": "address"
        },
        {
          "indexed": false,
          "internalType": "string",
          "name": "frunchiseLocation",
          "type": "string"
        }
      ],
      "name": "NewDealerRegistered",
      "type": "event"
    },
    {
      "anonymous": false,
      "inputs": [
        {
          "indexed": true,
          "internalType": "address",
          "name": "from",
          "type": "address"
        },
        {
          "indexed": true,
          "internalType": "address",
          "name": "to",
          "type": "address"
        },
        {
          "indexed": true,
          "internalType": "uint256",
          "name": "tokenId",
          "type": "uint256"
        }
      ],
      "name": "Transfer",
      "type": "event"
    },
    {
      "inputs": [
        {
          "internalType": "uint256",
          "name": "_frunchiseNo",
          "type": "uint256"
        },
        {
          "internalType": "address",
          "name": "_dealerEthereuem_address",
          "type": "address"
        },
        {
          "internalType": "string",
          "name": "_frunchiseLocation",
          "type": "string"
        }
      ],
      "name": "addNewDealer",
      "outputs": [],
      "stateMutability": "nonpayable",
      "type": "function"
    },
    {
      "inputs": [
        {
          "internalType": "address",
          "name": "to",
          "type": "address"
        },
        {
          "internalType": "uint256",
          "name": "tokenIdf",
          "type": "uint256"
        }
      ],
      "name": "approve",
      "outputs": [],
      "stateMutability": "nonpayable",
      "type": "function"
    },
    {
      "inputs": [
        {
          "internalType": "address",
          "name": "owner",
          "type": "address"
        }
      ],
      "name": "balanceOf",
      "outputs": [
        {
          "internalType": "uint256",
          "name": "",
          "type": "uint256"
        }
      ],
      "stateMutability": "view",
      "type": "function"
    },
    {
      "inputs": [
        {
          "internalType": "uint256",
          "name": "_registryNo",
          "type": "uint256"
        }
      ],
      "name": "checkAlreadyNftcreated",
      "outputs": [
        {
          "internalType": "bool",
          "name": "st",
          "type": "bool"
        }
      ],
      "stateMutability": "view",
      "type": "function"
    },
    {
      "inputs": [
        {
          "internalType": "address",
          "name": "ownerAddress",
          "type": "address"
        }
      ],
      "name": "checkOwnerDataExist",
      "outputs": [
        {
          "internalType": "bool",
          "name": "",
          "type": "bool"
        }
      ],
      "stateMutability": "view",
      "type": "function"
    },
    {
      "inputs": [],
      "name": "checkRegisterddealers",
      "outputs": [
        {
          "components": [
            {
              "internalType": "address",
              "name": "dealerEthereuem_address",
              "type": "address"
            },
            {
              "internalType": "string",
              "name": "frunchiseLocation",
              "type": "string"
            },
            {
              "internalType": "uint256",
              "name": "frunchiseNo",
              "type": "uint256"
            }
          ],
          "internalType": "struct realEstateNft.dealerData[]",
          "name": "",
          "type": "tuple[]"
        }
      ],
      "stateMutability": "view",
      "type": "function"
    },
    {
      "inputs": [
        {
          "internalType": "uint256",
          "name": "registrno",
          "type": "uint256"
        }
      ],
      "name": "check_NFTID",
      "outputs": [
        {
          "internalType": "uint256",
          "name": "count",
          "type": "uint256"
        }
      ],
      "stateMutability": "view",
      "type": "function"
    },
    {
      "inputs": [
        {
          "internalType": "uint256",
          "name": "frunchiseNo1",
          "type": "uint256"
        }
      ],
      "name": "check_how_many_plot_sell_by_dealer",
      "outputs": [
        {
          "internalType": "uint256",
          "name": "count",
          "type": "uint256"
        }
      ],
      "stateMutability": "view",
      "type": "function"
    },
    {
      "inputs": [
        {
          "internalType": "address",
          "name": "properowner",
          "type": "address"
        },
        {
          "internalType": "string",
          "name": "_housingsociety",
          "type": "string"
        },
        {
          "internalType": "uint256",
          "name": "_phase",
          "type": "uint256"
        },
        {
          "internalType": "uint256",
          "name": "_streetNo",
          "type": "uint256"
        },
        {
          "internalType": "uint256",
          "name": "_plotNo",
          "type": "uint256"
        },
        {
          "internalType": "uint256",
          "name": "_registryNo",
          "type": "uint256"
        },
        {
          "internalType": "uint256",
          "name": "_plotarea",
          "type": "uint256"
        },
        {
          "internalType": "string",
          "name": "_landLocation",
          "type": "string"
        },
        {
          "internalType": "string",
          "name": "_landnature",
          "type": "string"
        },
        {
          "internalType": "string",
          "name": "token_uri",
          "type": "string"
        }
      ],
      "name": "createNFT",
      "outputs": [
        {
          "internalType": "uint256",
          "name": "",
          "type": "uint256"
        }
      ],
      "stateMutability": "nonpayable",
      "type": "function"
    },
    {
      "inputs": [
        {
          "internalType": "string",
          "name": "_ownerName",
          "type": "string"
        },
        {
          "internalType": "uint256",
          "name": "_ownerCnic",
          "type": "uint256"
        },
        {
          "internalType": "string",
          "name": "_owneraddress",
          "type": "string"
        },
        {
          "internalType": "address",
          "name": "_ownerEthereumAddress",
          "type": "address"
        }
      ],
      "name": "enterOwnerDetails",
      "outputs": [],
      "stateMutability": "nonpayable",
      "type": "function"
    },
    {
      "inputs": [
        {
          "internalType": "uint256",
          "name": "tokenId",
          "type": "uint256"
        }
      ],
      "name": "getApproved",
      "outputs": [
        {
          "internalType": "address",
          "name": "",
          "type": "address"
        }
      ],
      "stateMutability": "view",
      "type": "function"
    },
    {
      "inputs": [
        {
          "internalType": "uint256",
          "name": "registrynumber",
          "type": "uint256"
        }
      ],
      "name": "getLocation",
      "outputs": [
        {
          "internalType": "string",
          "name": "gps",
          "type": "string"
        },
        {
          "components": [
            {
              "internalType": "string",
              "name": "ownerName",
              "type": "string"
            },
            {
              "internalType": "uint256",
              "name": "ownerCnic",
              "type": "uint256"
            },
            {
              "internalType": "string",
              "name": "owneraddress",
              "type": "string"
            },
            {
              "internalType": "address",
              "name": "ownerEthereumAddress",
              "type": "address"
            }
          ],
          "internalType": "struct realEstateNft.ownerInformation",
          "name": "kki",
          "type": "tuple"
        }
      ],
      "stateMutability": "view",
      "type": "function"
    },
    {
      "inputs": [],
      "name": "getOwnerProfile",
      "outputs": [
        {
          "components": [
            {
              "internalType": "string",
              "name": "ownerName",
              "type": "string"
            },
            {
              "internalType": "uint256",
              "name": "ownerCnic",
              "type": "uint256"
            },
            {
              "internalType": "string",
              "name": "owneraddress",
              "type": "string"
            },
            {
              "internalType": "address",
              "name": "ownerEthereumAddress",
              "type": "address"
            }
          ],
          "internalType": "struct realEstateNft.ownerInformation",
          "name": "",
          "type": "tuple"
        }
      ],
      "stateMutability": "view",
      "type": "function"
    },
    {
      "inputs": [
        {
          "internalType": "address",
          "name": "owner",
          "type": "address"
        },
        {
          "internalType": "address",
          "name": "operator",
          "type": "address"
        }
      ],
      "name": "isApprovedForAll",
      "outputs": [
        {
          "internalType": "bool",
          "name": "",
          "type": "bool"
        }
      ],
      "stateMutability": "view",
      "type": "function"
    },
    {
      "inputs": [],
      "name": "myProperties",
      "outputs": [
        {
          "internalType": "uint256[]",
          "name": "",
          "type": "uint256[]"
        },
        {
          "components": [
            {
              "internalType": "string",
              "name": "housingsociety",
              "type": "string"
            },
            {
              "internalType": "uint256",
              "name": "phase",
              "type": "uint256"
            },
            {
              "internalType": "uint256",
              "name": "streetNo",
              "type": "uint256"
            },
            {
              "internalType": "uint256",
              "name": "plotNo",
              "type": "uint256"
            },
            {
              "internalType": "uint256",
              "name": "registryNo",
              "type": "uint256"
            },
            {
              "internalType": "uint256",
              "name": "plotarea",
              "type": "uint256"
            },
            {
              "internalType": "string",
              "name": "landLocation",
              "type": "string"
            },
            {
              "internalType": "string",
              "name": "landnature",
              "type": "string"
            }
          ],
          "internalType": "struct realEstateNft.plotInformation[]",
          "name": "",
          "type": "tuple[]"
        }
      ],
      "stateMutability": "view",
      "type": "function"
    },
    {
      "inputs": [],
      "name": "name",
      "outputs": [
        {
          "internalType": "string",
          "name": "",
          "type": "string"
        }
      ],
      "stateMutability": "view",
      "type": "function"
    },
    {
      "inputs": [
        {
          "internalType": "uint256",
          "name": "regno",
          "type": "uint256"
        }
      ],
      "name": "ownerOF_Registry",
      "outputs": [
        {
          "components": [
            {
              "internalType": "string",
              "name": "ownerName",
              "type": "string"
            },
            {
              "internalType": "uint256",
              "name": "ownerCnic",
              "type": "uint256"
            },
            {
              "internalType": "string",
              "name": "owneraddress",
              "type": "string"
            },
            {
              "internalType": "address",
              "name": "ownerEthereumAddress",
              "type": "address"
            }
          ],
          "internalType": "struct realEstateNft.ownerInformation",
          "name": "ab",
          "type": "tuple"
        }
      ],
      "stateMutability": "view",
      "type": "function"
    },
    {
      "inputs": [
        {
          "internalType": "uint256",
          "name": "tokenId",
          "type": "uint256"
        }
      ],
      "name": "ownerOf",
      "outputs": [
        {
          "internalType": "address",
          "name": "",
          "type": "address"
        }
      ],
      "stateMutability": "view",
      "type": "function"
    },
    {
      "inputs": [
        {
          "internalType": "uint256",
          "name": "eTokenId",
          "type": "uint256"
        }
      ],
      "name": "ownerOfToken",
      "outputs": [
        {
          "components": [
            {
              "internalType": "string",
              "name": "ownerName",
              "type": "string"
            },
            {
              "internalType": "uint256",
              "name": "ownerCnic",
              "type": "uint256"
            },
            {
              "internalType": "string",
              "name": "owneraddress",
              "type": "string"
            },
            {
              "internalType": "address",
              "name": "ownerEthereumAddress",
              "type": "address"
            }
          ],
          "internalType": "struct realEstateNft.ownerInformation",
          "name": "ph",
          "type": "tuple"
        }
      ],
      "stateMutability": "view",
      "type": "function"
    },
    {
      "inputs": [
        {
          "internalType": "uint256",
          "name": "NftId",
          "type": "uint256"
        }
      ],
      "name": "propertyNftStoreValue",
      "outputs": [
        {
          "components": [
            {
              "internalType": "string",
              "name": "housingsociety",
              "type": "string"
            },
            {
              "internalType": "uint256",
              "name": "phase",
              "type": "uint256"
            },
            {
              "internalType": "uint256",
              "name": "streetNo",
              "type": "uint256"
            },
            {
              "internalType": "uint256",
              "name": "plotNo",
              "type": "uint256"
            },
            {
              "internalType": "uint256",
              "name": "registryNo",
              "type": "uint256"
            },
            {
              "internalType": "uint256",
              "name": "plotarea",
              "type": "uint256"
            },
            {
              "internalType": "string",
              "name": "landLocation",
              "type": "string"
            },
            {
              "internalType": "string",
              "name": "landnature",
              "type": "string"
            }
          ],
          "internalType": "struct realEstateNft.plotInformation",
          "name": "",
          "type": "tuple"
        }
      ],
      "stateMutability": "view",
      "type": "function"
    },
    {
      "inputs": [
        {
          "internalType": "address",
          "name": "from",
          "type": "address"
        },
        {
          "internalType": "address",
          "name": "to",
          "type": "address"
        },
        {
          "internalType": "uint256",
          "name": "tokenId",
          "type": "uint256"
        }
      ],
      "name": "safeTransferFrom",
      "outputs": [],
      "stateMutability": "nonpayable",
      "type": "function"
    },
    {
      "inputs": [
        {
          "internalType": "address",
          "name": "from",
          "type": "address"
        },
        {
          "internalType": "address",
          "name": "to",
          "type": "address"
        },
        {
          "internalType": "uint256",
          "name": "tokenId",
          "type": "uint256"
        },
        {
          "internalType": "bytes",
          "name": "data",
          "type": "bytes"
        }
      ],
      "name": "safeTransferFrom",
      "outputs": [],
      "stateMutability": "nonpayable",
      "type": "function"
    },
    {
      "inputs": [
        {
          "internalType": "address",
          "name": "operator",
          "type": "address"
        },
        {
          "internalType": "bool",
          "name": "approved",
          "type": "bool"
        }
      ],
      "name": "setApprovalForAll",
      "outputs": [],
      "stateMutability": "nonpayable",
      "type": "function"
    },
    {
      "inputs": [
        {
          "internalType": "bytes4",
          "name": "interfaceId",
          "type": "bytes4"
        }
      ],
      "name": "supportsInterface",
      "outputs": [
        {
          "internalType": "bool",
          "name": "",
          "type": "bool"
        }
      ],
      "stateMutability": "view",
      "type": "function"
    },
    {
      "inputs": [],
      "name": "symbol",
      "outputs": [
        {
          "internalType": "string",
          "name": "",
          "type": "string"
        }
      ],
      "stateMutability": "view",
      "type": "function"
    },
    {
      "inputs": [
        {
          "internalType": "uint256",
          "name": "tokenId",
          "type": "uint256"
        }
      ],
      "name": "tokenURI",
      "outputs": [
        {
          "internalType": "string",
          "name": "",
          "type": "string"
        }
      ],
      "stateMutability": "view",
      "type": "function"
    },
    {
      "inputs": [
        {
          "internalType": "address",
          "name": "from",
          "type": "address"
        },
        {
          "internalType": "address",
          "name": "to",
          "type": "address"
        },
        {
          "internalType": "uint256",
          "name": "tokenIdf",
          "type": "uint256"
        }
      ],
      "name": "transferFrom",
      "outputs": [],
      "stateMutability": "nonpayable",
      "type": "function"
    }
  ],
  "bytecode": "0x608060405260006010553480156200001657600080fd5b506040518060400160405280600d81526020017f5265616c4573746174654e4654000000000000000000000000000000000000008152506040518060400160405280600381526020017f4e4654000000000000000000000000000000000000000000000000000000000081525081600090816200009491906200036a565b508060019081620000a691906200036a565b50505033600760006101000a81548173ffffffffffffffffffffffffffffffffffffffff021916908373ffffffffffffffffffffffffffffffffffffffff16021790555062000451565b600081519050919050565b7f4e487b7100000000000000000000000000000000000000000000000000000000600052604160045260246000fd5b7f4e487b7100000000000000000000000000000000000000000000000000000000600052602260045260246000fd5b600060028204905060018216806200017257607f821691505b6020821081036200018857620001876200012a565b5b50919050565b60008190508160005260206000209050919050565b60006020601f8301049050919050565b600082821b905092915050565b600060088302620001f27fffffffffffffffffffffffffffffffffffffffffffffffffffffffffffffffff82620001b3565b620001fe8683620001b3565b95508019841693508086168417925050509392505050565b6000819050919050565b6000819050919050565b60006200024b620002456200023f8462000216565b62000220565b62000216565b9050919050565b6000819050919050565b62000267836200022a565b6200027f620002768262000252565b848454620001c0565b825550505050565b600090565b6200029662000287565b620002a38184846200025c565b505050565b5b81811015620002cb57620002bf6000826200028c565b600181019050620002a9565b5050565b601f8211156200031a57620002e4816200018e565b620002ef84620001a3565b81016020851015620002ff578190505b620003176200030e85620001a3565b830182620002a8565b50505b505050565b600082821c905092915050565b60006200033f600019846008026200031f565b1980831691505092915050565b60006200035a83836200032c565b9150826002028217905092915050565b6200037582620000f0565b67ffffffffffffffff811115620003915762000390620000fb565b5b6200039d825462000159565b620003aa828285620002cf565b600060209050601f831160018114620003e25760008415620003cd578287015190505b620003d985826200034c565b86555062000449565b601f198416620003f2866200018e565b60005b828110156200041c57848901518255600182019150602085019450602081019050620003f5565b868310156200043c578489015162000438601f8916826200032c565b8355505b6001600288020188555050505b505050505050565b615f5980620004616000396000f3fe608060405234801561001057600080fd5b50600436106101a95760003560e01c806395d89b41116100f9578063bec8991411610097578063cbaf983811610071578063cbaf983814610540578063d7e33b8314610570578063da66fd8a1461058e578063e985e9c5146105aa576101a9565b8063bec89914146104b0578063c57ac5d6146104e0578063c87b56dd14610510576101a9565b8063a22cb465116100d3578063a22cb4651461043e578063acc72e6e1461045a578063b88d4fde14610476578063bba48d9014610492576101a9565b806395d89b41146103c05780639ef6d161146103de5780639fed612b1461040e576101a9565b806326e4dbfa116101665780636352211e116101405780636352211e146102ff57806370a082311461032f5780637491a5c01461035f5780637f7b13931461038f576101a9565b806326e4dbfa1461029457806342842e0e146102c45780635fd5438a146102e0576101a9565b806301ffc9a7146101ae57806306fdde03146101de578063081812fc146101fc578063095ea7b31461022c5780631879b7891461024857806323b872dd14610278575b600080fd5b6101c860048036038101906101c39190613d55565b6105da565b6040516101d59190613d9d565b60405180910390f35b6101e661063b565b6040516101f39190613e48565b60405180910390f35b61021660048036038101906102119190613ea0565b6106cd565b6040516102239190613f0e565b60405180910390f35b61024660048036038101906102419190613f55565b610713565b005b610262600480360381019061025d91906140ca565b61082a565b60405161026f9190614228565b60405180910390f35b610292600480360381019061028d9190614243565b610b8e565b005b6102ae60048036038101906102a99190613ea0565b610c36565b6040516102bb9190614228565b60405180910390f35b6102de60048036038101906102d99190614243565b610d9c565b005b6102e8610dbc565b6040516102f692919061451e565b60405180910390f35b61031960048036038101906103149190613ea0565b61115c565b6040516103269190613f0e565b60405180910390f35b61034960048036038101906103449190614555565b6111e2565b6040516103569190614228565b60405180910390f35b61037960048036038101906103749190613ea0565b611299565b6040516103869190613d9d565b60405180910390f35b6103a960048036038101906103a49190613ea0565b6112eb565b6040516103b79291906145fb565b60405180910390f35b6103c8611443565b6040516103d59190613e48565b60405180910390f35b6103f860048036038101906103f39190613ea0565b6114d5565b6040516104059190614632565b60405180910390f35b61042860048036038101906104239190613ea0565b6117d6565b6040516104359190614712565b60405180910390f35b61045860048036038101906104539190614760565b6119ec565b005b610474600480360381019061046f91906147a0565b611a02565b005b610490600480360381019061048b91906148b0565b611d4e565b005b61049a611db0565b6040516104a79190614a45565b60405180910390f35b6104ca60048036038101906104c59190614555565b611fbc565b6040516104d79190613d9d565b60405180910390f35b6104fa60048036038101906104f59190613ea0565b612071565b6040516105079190614632565b60405180910390f35b61052a60048036038101906105259190613ea0565b612352565b6040516105379190613e48565b60405180910390f35b61055a60048036038101906105559190613ea0565b612464565b6040516105679190614228565b60405180910390f35b6105786124f4565b6040516105859190614632565b60405180910390f35b6105a860048036038101906105a39190614a67565b612765565b005b6105c460048036038101906105bf9190614b06565b612a5d565b6040516105d19190613d9d565b60405180910390f35b6000634906490660e01b7bffffffffffffffffffffffffffffffffffffffffffffffffffffffff1916827bffffffffffffffffffffffffffffffffffffffffffffffffffffffff19161480610634575061063382612af1565b5b9050919050565b60606000805461064a90614b75565b80601f016020809104026020016040519081016040528092919081815260200182805461067690614b75565b80156106c35780601f10610698576101008083540402835291602001916106c3565b820191906000526020600020905b8154815290600101906020018083116106a657829003601f168201915b5050505050905090565b60006106d882612bd3565b6004600083815260200190815260200160002060009054906101000a900473ffffffffffffffffffffffffffffffffffffffff169050919050565b600061071e8261115c565b90508073ffffffffffffffffffffffffffffffffffffffff168373ffffffffffffffffffffffffffffffffffffffff160361078e576040517f08c379a000000000000000000000000000000000000000000000000000000000815260040161078590614bf2565b60405180910390fd5b8073ffffffffffffffffffffffffffffffffffffffff166107ad612c1e565b73ffffffffffffffffffffffffffffffffffffffff1614806107dc57506107db816107d6612c1e565b612a5d565b5b61081b576040517f08c379a000000000000000000000000000000000000000000000000000000000815260040161081290614c84565b60405180910390fd5b6108258383612c26565b505050565b6000336000805b6009805490508110156108ce576009818154811061085257610851614ca4565b5b906000526020600020906003020160000160009054906101000a900473ffffffffffffffffffffffffffffffffffffffff1673ffffffffffffffffffffffffffffffffffffffff168373ffffffffffffffffffffffffffffffffffffffff16036108bb57600191505b80806108c690614d02565b915050610831565b506001151581151514610916576040517f08c379a000000000000000000000000000000000000000000000000000000000815260040161090d90614dbc565b60405180910390fd5b6000806109228f611fbc565b15156001151514610968576040517f08c379a000000000000000000000000000000000000000000000000000000000815260040161095f90614e4e565b60405180910390fd5b6109718a611299565b915060011515821515036109ba576040517f08c379a00000000000000000000000000000000000000000000000000000000081526004016109b190614ee0565b60405180910390fd5b6109c4600c612cdf565b6109ce600c612cf5565b90506109da8f82612d03565b6109e48187612f20565b6109f48e8e8e8e8e8e8e8e612fc4565b6040518061010001604052808f81526020018e81526020018d81526020018c81526020018b81526020018a815260200189815260200188815250600d60008381526020019081526020016000206000820151816000019081610a5691906150ac565b506020820151816001015560408201518160020155606082015181600301556080820151816004015560a0820151816005015560c0820151816006019081610a9e91906150ac565b5060e0820151816007019081610ab491906150ac565b509050508e600e600083815260200190815260200160002060006101000a81548173ffffffffffffffffffffffffffffffffffffffff021916908373ffffffffffffffffffffffffffffffffffffffff1602179055506001600f60003373ffffffffffffffffffffffffffffffffffffffff1673ffffffffffffffffffffffffffffffffffffffff1681526020019081526020016000206000828254610b5a919061517e565b9250508190555060106000815480929190610b7490614d02565b9190505550809450505050509a9950505050505050505050565b610b9782611fbc565b610bd6576040517f08c379a0000000000000000000000000000000000000000000000000000000008152600401610bcd90615224565b60405180910390fd5b610be7610be1612c1e565b8261319b565b610c26576040517f08c379a0000000000000000000000000000000000000000000000000000000008152600401610c1d906152b6565b60405180910390fd5b610c31838383613230565b505050565b60008060005b600980549050811015610cd15760098181548110610c5d57610c5c614ca4565b5b9060005260206000209060030201600201548403610cbe5760098181548110610c8957610c88614ca4565b5b906000526020600020906003020160000160009054906101000a900473ffffffffffffffffffffffffffffffffffffffff1691505b8080610cc990614d02565b915050610c3c565b506000600f60008373ffffffffffffffffffffffffffffffffffffffff1673ffffffffffffffffffffffffffffffffffffffff1681526020019081526020016000205403610d54576040517f08c379a0000000000000000000000000000000000000000000000000000000008152600401610d4b90615348565b60405180910390fd5b600f60008273ffffffffffffffffffffffffffffffffffffffff1673ffffffffffffffffffffffffffffffffffffffff16815260200190815260200160002054915050919050565b610db783838360405180602001604052806000815250611d4e565b505050565b6060806000610dca336111e2565b67ffffffffffffffff811115610de357610de2613f9f565b5b604051908082528060200260200182016040528015610e115781602001602082028036833780820191505090505b5090506000610e1f336111e2565b67ffffffffffffffff811115610e3857610e37613f9f565b5b604051908082528060200260200182016040528015610e7157816020015b610e5e613c2f565b815260200190600190039081610e565790505b5090506000805b601054811161114e573373ffffffffffffffffffffffffffffffffffffffff16600e600083815260200190815260200160002060009054906101000a900473ffffffffffffffffffffffffffffffffffffffff1673ffffffffffffffffffffffffffffffffffffffff160361113b5780848381518110610efb57610efa614ca4565b5b602002602001018181525050600d600082815260200190815260200160002060405180610100016040529081600082018054610f3690614b75565b80601f0160208091040260200160405190810160405280929190818152602001828054610f6290614b75565b8015610faf5780601f10610f8457610100808354040283529160200191610faf565b820191906000526020600020905b815481529060010190602001808311610f9257829003601f168201915b505050505081526020016001820154815260200160028201548152602001600382015481526020016004820154815260200160058201548152602001600682018054610ffa90614b75565b80601f016020809104026020016040519081016040528092919081815260200182805461102690614b75565b80156110735780601f1061104857610100808354040283529160200191611073565b820191906000526020600020905b81548152906001019060200180831161105657829003601f168201915b5050505050815260200160078201805461108c90614b75565b80601f01602080910402602001604051908101604052809291908181526020018280546110b890614b75565b80156111055780601f106110da57610100808354040283529160200191611105565b820191906000526020600020905b8154815290600101906020018083116110e857829003601f168201915b50505050508152505083838151811061112157611120614ca4565b5b6020026020010181905250818061113790614d02565b9250505b808061114690614d02565b915050610e78565b508282945094505050509091565b60008061116883613529565b9050600073ffffffffffffffffffffffffffffffffffffffff168173ffffffffffffffffffffffffffffffffffffffff16036111d9576040517f08c379a00000000000000000000000000000000000000000000000000000000081526004016111d0906153b4565b60405180910390fd5b80915050919050565b60008073ffffffffffffffffffffffffffffffffffffffff168273ffffffffffffffffffffffffffffffffffffffff1603611252576040517f08c379a000000000000000000000000000000000000000000000000000000000815260040161124990615446565b60405180910390fd5b600360008373ffffffffffffffffffffffffffffffffffffffff1673ffffffffffffffffffffffffffffffffffffffff168152602001908152602001600020549050919050565b6000806000905060005b60105481116112e157600d60008281526020019081526020016000206004015484036112ce57600191505b80806112d990614d02565b9150506112a3565b5080915050919050565b60606112f5613c74565b60606000805b60105481116113da57600d60008281526020019081526020016000206004015486036113c757600d6000828152602001908152602001600020600601805461134290614b75565b80601f016020809104026020016040519081016040528092919081815260200182805461136e90614b75565b80156113bb5780601f10611390576101008083540402835291602001916113bb565b820191906000526020600020905b81548152906001019060200180831161139e57829003601f168201915b50505050509250600191505b80806113d290614d02565b9150506112fb565b506001151581151514611422576040517f08c379a0000000000000000000000000000000000000000000000000000000008152600401611419906154b2565b60405180910390fd5b61142a613c74565b611433866114d5565b9050828194509450505050915091565b60606001805461145290614b75565b80601f016020809104026020016040519081016040528092919081815260200182805461147e90614b75565b80156114cb5780601f106114a0576101008083540402835291602001916114cb565b820191906000526020600020905b8154815290600101906020018083116114ae57829003601f168201915b5050505050905090565b6114dd613c74565b60008080600090505b601054811161152f57600d600082815260200190815260200160002060040154850361151c5761151581613529565b9150600192505b808061152790614d02565b9150506114e6565b506001151582151514611577576040517f08c379a000000000000000000000000000000000000000000000000000000000815260040161156e90615544565b60405180910390fd5b60005b600b805490508110156117cd57600b818154811061159b5761159a614ca4565b5b906000526020600020906004020160030160009054906101000a900473ffffffffffffffffffffffffffffffffffffffff1673ffffffffffffffffffffffffffffffffffffffff168273ffffffffffffffffffffffffffffffffffffffff16036117ba57600b818154811061161357611612614ca4565b5b906000526020600020906004020160405180608001604052908160008201805461163c90614b75565b80601f016020809104026020016040519081016040528092919081815260200182805461166890614b75565b80156116b55780601f1061168a576101008083540402835291602001916116b5565b820191906000526020600020905b81548152906001019060200180831161169857829003601f168201915b50505050508152602001600182015481526020016002820180546116d890614b75565b80601f016020809104026020016040519081016040528092919081815260200182805461170490614b75565b80156117515780601f1061172657610100808354040283529160200191611751565b820191906000526020600020905b81548152906001019060200180831161173457829003601f168201915b505050505081526020016003820160009054906101000a900473ffffffffffffffffffffffffffffffffffffffff1673ffffffffffffffffffffffffffffffffffffffff1673ffffffffffffffffffffffffffffffffffffffff168152505093505050506117d1565b80806117c590614d02565b91505061157a565b5050505b919050565b6117de613c2f565b600d60008381526020019081526020016000206040518061010001604052908160008201805461180d90614b75565b80601f016020809104026020016040519081016040528092919081815260200182805461183990614b75565b80156118865780601f1061185b57610100808354040283529160200191611886565b820191906000526020600020905b81548152906001019060200180831161186957829003601f168201915b5050505050815260200160018201548152602001600282015481526020016003820154815260200160048201548152602001600582015481526020016006820180546118d190614b75565b80601f01602080910402602001604051908101604052809291908181526020018280546118fd90614b75565b801561194a5780601f1061191f5761010080835404028352916020019161194a565b820191906000526020600020905b81548152906001019060200180831161192d57829003601f168201915b5050505050815260200160078201805461196390614b75565b80601f016020809104026020016040519081016040528092919081815260200182805461198f90614b75565b80156119dc5780601f106119b1576101008083540402835291602001916119dc565b820191906000526020600020905b8154815290600101906020018083116119bf57829003601f168201915b5050505050815250509050919050565b6119fe6119f7612c1e565b8383613566565b5050565b600760009054906101000a900473ffffffffffffffffffffffffffffffffffffffff1673ffffffffffffffffffffffffffffffffffffffff163373ffffffffffffffffffffffffffffffffffffffff1614611a92576040517f08c379a0000000000000000000000000000000000000000000000000000000008152600401611a89906155b0565b60405180910390fd5b60006001905060005b600980549050811015611be25760098181548110611abc57611abb614ca4565b5b906000526020600020906003020160000160009054906101000a900473ffffffffffffffffffffffffffffffffffffffff1673ffffffffffffffffffffffffffffffffffffffff168473ffffffffffffffffffffffffffffffffffffffff161480611b4b575060098181548110611b3657611b35614ca4565b5b90600052602060002090600302016002015485145b80611bc5575060098181548110611b6557611b64614ca4565b5b9060005260206000209060030201600101604051602001611b869190615673565b6040516020818303038152906040528051906020012083604051602001611bad91906156c6565b60405160208183030381529060405280519060200120145b15611bcf57600091505b8080611bda90614d02565b915050611a9b565b506001151581151514611c2a576040517f08c379a0000000000000000000000000000000000000000000000000000000008152600401611c219061574f565b60405180910390fd5b600060405180606001604052808573ffffffffffffffffffffffffffffffffffffffff168152602001848152602001868152509050600981908060018154018082558091505060019003906000526020600020906003020160009091909190915060008201518160000160006101000a81548173ffffffffffffffffffffffffffffffffffffffff021916908373ffffffffffffffffffffffffffffffffffffffff1602179055506020820151816001019081611ce791906150ac565b5060408201518160020155505060086000815480929190611d0790614d02565b91905055507f4e31edb962224a72dcf8b76a54d067241370c197d4d590e595cb5917a530bd66858585604051611d3f9392919061576f565b60405180910390a15050505050565b611d5f611d59612c1e565b8361319b565b611d9e576040517f08c379a0000000000000000000000000000000000000000000000000000000008152600401611d959061581f565b60405180910390fd5b611daa848484846136d2565b50505050565b6060600060085403611df7576040517f08c379a0000000000000000000000000000000000000000000000000000000008152600401611dee906158b1565b60405180910390fd5b600060085467ffffffffffffffff811115611e1557611e14613f9f565b5b604051908082528060200260200182016040528015611e4e57816020015b611e3b613cb2565b815260200190600190039081611e335790505b50905060005b600854811015611fb457600060098281548110611e7457611e73614ca4565b5b90600052602060002090600302019050806040518060600160405290816000820160009054906101000a900473ffffffffffffffffffffffffffffffffffffffff1673ffffffffffffffffffffffffffffffffffffffff1673ffffffffffffffffffffffffffffffffffffffff168152602001600182018054611ef690614b75565b80601f0160208091040260200160405190810160405280929190818152602001828054611f2290614b75565b8015611f6f5780601f10611f4457610100808354040283529160200191611f6f565b820191906000526020600020905b815481529060010190602001808311611f5257829003601f168201915b50505050508152602001600282015481525050838381518110611f9557611f94614ca4565b5b6020026020010181905250508080611fac90614d02565b915050611e54565b508091505090565b6000806000905060005b600b8054905081101561206757600b8181548110611fe757611fe6614ca4565b5b906000526020600020906004020160030160009054906101000a900473ffffffffffffffffffffffffffffffffffffffff1673ffffffffffffffffffffffffffffffffffffffff168473ffffffffffffffffffffffffffffffffffffffff16036120545760019150612067565b808061205f90614d02565b915050611fc6565b5080915050919050565b612079613c74565b600061208483613529565b9050600073ffffffffffffffffffffffffffffffffffffffff168173ffffffffffffffffffffffffffffffffffffffff16036120f5576040517f08c379a00000000000000000000000000000000000000000000000000000000081526004016120ec9061591d565b60405180910390fd5b60005b600b8054905081101561234a57600b818154811061211957612118614ca4565b5b906000526020600020906004020160030160009054906101000a900473ffffffffffffffffffffffffffffffffffffffff1673ffffffffffffffffffffffffffffffffffffffff168273ffffffffffffffffffffffffffffffffffffffff160361233757600b818154811061219157612190614ca4565b5b90600052602060002090600402016040518060800160405290816000820180546121ba90614b75565b80601f01602080910402602001604051908101604052809291908181526020018280546121e690614b75565b80156122335780601f1061220857610100808354040283529160200191612233565b820191906000526020600020905b81548152906001019060200180831161221657829003601f168201915b505050505081526020016001820154815260200160028201805461225690614b75565b80601f016020809104026020016040519081016040528092919081815260200182805461228290614b75565b80156122cf5780601f106122a4576101008083540402835291602001916122cf565b820191906000526020600020905b8154815290600101906020018083116122b257829003601f168201915b505050505081526020016003820160009054906101000a900473ffffffffffffffffffffffffffffffffffffffff1673ffffffffffffffffffffffffffffffffffffffff1673ffffffffffffffffffffffffffffffffffffffff16815250509250505061234d565b808061234290614d02565b9150506120f8565b50505b919050565b606061235d82612bd3565b600060066000848152602001908152602001600020805461237d90614b75565b80601f01602080910402602001604051908101604052809291908181526020018280546123a990614b75565b80156123f65780601f106123cb576101008083540402835291602001916123f6565b820191906000526020600020905b8154815290600101906020018083116123d957829003601f168201915b50505050509050600061240761372e565b9050600081510361241c57819250505061245f565b60008251111561245157808260405160200161243992919061593d565b6040516020818303038152906040529250505061245f565b61245a84613745565b925050505b919050565b60008060005b60105481116124a757600d6000828152602001908152602001600020600401548403612494578091505b808061249f90614d02565b91505061246a565b50600081036124eb576040517f08c379a00000000000000000000000000000000000000000000000000000000081526004016124e2906159d3565b60405180910390fd5b80915050919050565b6124fc613c74565b6000339050612509613c74565b60005b600b8054905081101561275c578273ffffffffffffffffffffffffffffffffffffffff16600b828154811061254457612543614ca4565b5b906000526020600020906004020160030160009054906101000a900473ffffffffffffffffffffffffffffffffffffffff1673ffffffffffffffffffffffffffffffffffffffff160361274957600b81815481106125a5576125a4614ca4565b5b90600052602060002090600402016040518060800160405290816000820180546125ce90614b75565b80601f01602080910402602001604051908101604052809291908181526020018280546125fa90614b75565b80156126475780601f1061261c57610100808354040283529160200191612647565b820191906000526020600020905b81548152906001019060200180831161262a57829003601f168201915b505050505081526020016001820154815260200160028201805461266a90614b75565b80601f016020809104026020016040519081016040528092919081815260200182805461269690614b75565b80156126e35780601f106126b8576101008083540402835291602001916126e3565b820191906000526020600020905b8154815290600101906020018083116126c657829003601f168201915b505050505081526020016003820160009054906101000a900473ffffffffffffffffffffffffffffffffffffffff1673ffffffffffffffffffffffffffffffffffffffff1673ffffffffffffffffffffffffffffffffffffffff1681525050915061275c565b808061275490614d02565b91505061250c565b50809250505090565b336000805b600980549050811015612807576009818154811061278b5761278a614ca4565b5b906000526020600020906003020160000160009054906101000a900473ffffffffffffffffffffffffffffffffffffffff1673ffffffffffffffffffffffffffffffffffffffff168373ffffffffffffffffffffffffffffffffffffffff16036127f457600191505b80806127ff90614d02565b91505061276a565b50600115158115151461284f576040517f08c379a000000000000000000000000000000000000000000000000000000000815260040161284690614dbc565b60405180910390fd5b60006001905060005b600b8054905081101561292557600b818154811061287957612878614ca4565b5b9060005260206000209060040201600101548714806129085750600b81815481106128a7576128a6614ca4565b5b906000526020600020906004020160030160009054906101000a900473ffffffffffffffffffffffffffffffffffffffff1673ffffffffffffffffffffffffffffffffffffffff168573ffffffffffffffffffffffffffffffffffffffff16145b1561291257600091505b808061291d90614d02565b915050612858565b50600115158115151461296d576040517f08c379a000000000000000000000000000000000000000000000000000000000815260040161296490615a65565b60405180910390fd5b600060405180608001604052808981526020018881526020018781526020018673ffffffffffffffffffffffffffffffffffffffff168152509050600b81908060018154018082558091505060019003906000526020600020906004020160009091909190915060008201518160000190816129e991906150ac565b50602082015181600101556040820151816002019081612a0991906150ac565b5060608201518160030160006101000a81548173ffffffffffffffffffffffffffffffffffffffff021916908373ffffffffffffffffffffffffffffffffffffffff16021790555050505050505050505050565b6000600560008473ffffffffffffffffffffffffffffffffffffffff1673ffffffffffffffffffffffffffffffffffffffff16815260200190815260200160002060008373ffffffffffffffffffffffffffffffffffffffff1673ffffffffffffffffffffffffffffffffffffffff16815260200190815260200160002060009054906101000a900460ff16905092915050565b60007f80ac58cd000000000000000000000000000000000000000000000000000000007bffffffffffffffffffffffffffffffffffffffffffffffffffffffff1916827bffffffffffffffffffffffffffffffffffffffffffffffffffffffff19161480612bbc57507f5b5e139f000000000000000000000000000000000000000000000000000000007bffffffffffffffffffffffffffffffffffffffffffffffffffffffff1916827bffffffffffffffffffffffffffffffffffffffffffffffffffffffff1916145b80612bcc5750612bcb826137ad565b5b9050919050565b612bdc81613817565b612c1b576040517f08c379a0000000000000000000000000000000000000000000000000000000008152600401612c12906153b4565b60405180910390fd5b50565b600033905090565b816004600083815260200190815260200160002060006101000a81548173ffffffffffffffffffffffffffffffffffffffff021916908373ffffffffffffffffffffffffffffffffffffffff160217905550808273ffffffffffffffffffffffffffffffffffffffff16612c998361115c565b73ffffffffffffffffffffffffffffffffffffffff167f8c5be1e5ebec7d5bd14f71427d1e84f3dd0314c0f7b2291e5b200ac8c7c3b92560405160405180910390a45050565b6001816000016000828254019250508190555050565b600081600001549050919050565b600073ffffffffffffffffffffffffffffffffffffffff168273ffffffffffffffffffffffffffffffffffffffff1603612d72576040517f08c379a0000000000000000000000000000000000000000000000000000000008152600401612d6990615ad1565b60405180910390fd5b612d7b81613817565b15612dbb576040517f08c379a0000000000000000000000000000000000000000000000000000000008152600401612db290615b3d565b60405180910390fd5b612dc9600083836001613858565b612dd281613817565b15612e12576040517f08c379a0000000000000000000000000000000000000000000000000000000008152600401612e0990615b3d565b60405180910390fd5b6001600360008473ffffffffffffffffffffffffffffffffffffffff1673ffffffffffffffffffffffffffffffffffffffff16815260200190815260200160002060008282540192505081905550816002600083815260200190815260200160002060006101000a81548173ffffffffffffffffffffffffffffffffffffffff021916908373ffffffffffffffffffffffffffffffffffffffff160217905550808273ffffffffffffffffffffffffffffffffffffffff16600073ffffffffffffffffffffffffffffffffffffffff167fddf252ad1be2c89b69c2b068fc378daa952ba7f163c4a11628f55a4df523b3ef60405160405180910390a4612f1c60008383600161385e565b5050565b612f2982613817565b612f68576040517f08c379a0000000000000000000000000000000000000000000000000000000008152600401612f5f90615bcf565b60405180910390fd5b80600660008481526020019081526020016000209081612f8891906150ac565b507ff8e1a15aba9398e019f0b49df1a4fde98ee17ae345cb5f6b5e2c27f5033e8ce782604051612fb89190614228565b60405180910390a15050565b336000805b6009805490508110156130665760098181548110612fea57612fe9614ca4565b5b906000526020600020906003020160000160009054906101000a900473ffffffffffffffffffffffffffffffffffffffff1673ffffffffffffffffffffffffffffffffffffffff168373ffffffffffffffffffffffffffffffffffffffff160361305357600191505b808061305e90614d02565b915050612fc9565b5060011515811515146130ae576040517f08c379a00000000000000000000000000000000000000000000000000000000081526004016130a590614dbc565b60405180910390fd5b60006040518061010001604052808c81526020018b81526020018a8152602001898152602001888152602001878152602001868152602001858152509050600a819080600181540180825580915050600190039060005260206000209060080201600090919091909150600082015181600001908161312d91906150ac565b506020820151816001015560408201518160020155606082015181600301556080820151816004015560a0820151816005015560c082015181600601908161317591906150ac565b5060e082015181600701908161318b91906150ac565b5050505050505050505050505050565b6000806131a78361115c565b90508073ffffffffffffffffffffffffffffffffffffffff168473ffffffffffffffffffffffffffffffffffffffff1614806131e957506131e88185612a5d565b5b8061322757508373ffffffffffffffffffffffffffffffffffffffff1661320f846106cd565b73ffffffffffffffffffffffffffffffffffffffff16145b91505092915050565b8273ffffffffffffffffffffffffffffffffffffffff166132508261115c565b73ffffffffffffffffffffffffffffffffffffffff16146132a6576040517f08c379a000000000000000000000000000000000000000000000000000000000815260040161329d90615c61565b60405180910390fd5b600073ffffffffffffffffffffffffffffffffffffffff168273ffffffffffffffffffffffffffffffffffffffff1603613315576040517f08c379a000000000000000000000000000000000000000000000000000000000815260040161330c90615cf3565b60405180910390fd5b6133228383836001613858565b8273ffffffffffffffffffffffffffffffffffffffff166133428261115c565b73ffffffffffffffffffffffffffffffffffffffff1614613398576040517f08c379a000000000000000000000000000000000000000000000000000000000815260040161338f90615c61565b60405180910390fd5b6004600082815260200190815260200160002060006101000a81549073ffffffffffffffffffffffffffffffffffffffff02191690556001600360008573ffffffffffffffffffffffffffffffffffffffff1673ffffffffffffffffffffffffffffffffffffffff168152602001908152602001600020600082825403925050819055506001600360008473ffffffffffffffffffffffffffffffffffffffff1673ffffffffffffffffffffffffffffffffffffffff16815260200190815260200160002060008282540192505081905550816002600083815260200190815260200160002060006101000a81548173ffffffffffffffffffffffffffffffffffffffff021916908373ffffffffffffffffffffffffffffffffffffffff160217905550808273ffffffffffffffffffffffffffffffffffffffff168473ffffffffffffffffffffffffffffffffffffffff167fddf252ad1be2c89b69c2b068fc378daa952ba7f163c4a11628f55a4df523b3ef60405160405180910390a4613524838383600161385e565b505050565b60006002600083815260200190815260200160002060009054906101000a900473ffffffffffffffffffffffffffffffffffffffff169050919050565b8173ffffffffffffffffffffffffffffffffffffffff168373ffffffffffffffffffffffffffffffffffffffff16036135d4576040517f08c379a00000000000000000000000000000000000000000000000000000000081526004016135cb90615d5f565b60405180910390fd5b80600560008573ffffffffffffffffffffffffffffffffffffffff1673ffffffffffffffffffffffffffffffffffffffff16815260200190815260200160002060008473ffffffffffffffffffffffffffffffffffffffff1673ffffffffffffffffffffffffffffffffffffffff16815260200190815260200160002060006101000a81548160ff0219169083151502179055508173ffffffffffffffffffffffffffffffffffffffff168373ffffffffffffffffffffffffffffffffffffffff167f17307eab39ab6107e8899845ad3d59bd9653f200f220920489ca2b5937696c31836040516136c59190613d9d565b60405180910390a3505050565b6136dd848484613230565b6136e984848484613864565b613728576040517f08c379a000000000000000000000000000000000000000000000000000000000815260040161371f90615df1565b60405180910390fd5b50505050565b606060405180602001604052806000815250905090565b606061375082612bd3565b600061375a61372e565b9050600081511161377a57604051806020016040528060008152506137a5565b80613784846139eb565b60405160200161379592919061593d565b6040516020818303038152906040525b915050919050565b60007f01ffc9a7000000000000000000000000000000000000000000000000000000007bffffffffffffffffffffffffffffffffffffffffffffffffffffffff1916827bffffffffffffffffffffffffffffffffffffffffffffffffffffffff1916149050919050565b60008073ffffffffffffffffffffffffffffffffffffffff1661383983613529565b73ffffffffffffffffffffffffffffffffffffffff1614159050919050565b50505050565b50505050565b60006138858473ffffffffffffffffffffffffffffffffffffffff16613ab9565b156139de578373ffffffffffffffffffffffffffffffffffffffff1663150b7a026138ae612c1e565b8786866040518563ffffffff1660e01b81526004016138d09493929190615e66565b6020604051808303816000875af192505050801561390c57506040513d601f19601f820116820180604052508101906139099190615ec7565b60015b61398e573d806000811461393c576040519150601f19603f3d011682016040523d82523d6000602084013e613941565b606091505b506000815103613986576040517f08c379a000000000000000000000000000000000000000000000000000000000815260040161397d90615df1565b60405180910390fd5b805181602001fd5b63150b7a0260e01b7bffffffffffffffffffffffffffffffffffffffffffffffffffffffff1916817bffffffffffffffffffffffffffffffffffffffffffffffffffffffff1916149150506139e3565b600190505b949350505050565b6060600060016139fa84613adc565b01905060008167ffffffffffffffff811115613a1957613a18613f9f565b5b6040519080825280601f01601f191660200182016040528015613a4b5781602001600182028036833780820191505090505b509050600082602001820190505b600115613aae578080600190039150507f3031323334353637383961626364656600000000000000000000000000000000600a86061a8153600a8581613aa257613aa1615ef4565b5b04945060008503613a59575b819350505050919050565b6000808273ffffffffffffffffffffffffffffffffffffffff163b119050919050565b600080600090507a184f03e93ff9f4daa797ed6e38ed64bf6a1f0100000000000000008310613b3a577a184f03e93ff9f4daa797ed6e38ed64bf6a1f0100000000000000008381613b3057613b2f615ef4565b5b0492506040810190505b6d04ee2d6d415b85acef81000000008310613b77576d04ee2d6d415b85acef81000000008381613b6d57613b6c615ef4565b5b0492506020810190505b662386f26fc100008310613ba657662386f26fc100008381613b9c57613b9b615ef4565b5b0492506010810190505b6305f5e1008310613bcf576305f5e1008381613bc557613bc4615ef4565b5b0492506008810190505b6127108310613bf4576127108381613bea57613be9615ef4565b5b0492506004810190505b60648310613c175760648381613c0d57613c0c615ef4565b5b0492506002810190505b600a8310613c26576001810190505b80915050919050565b60405180610100016040528060608152602001600081526020016000815260200160008152602001600081526020016000815260200160608152602001606081525090565b6040518060800160405280606081526020016000815260200160608152602001600073ffffffffffffffffffffffffffffffffffffffff1681525090565b6040518060600160405280600073ffffffffffffffffffffffffffffffffffffffff16815260200160608152602001600081525090565b6000604051905090565b600080fd5b600080fd5b60007fffffffff0000000000000000000000000000000000000000000000000000000082169050919050565b613d3281613cfd565b8114613d3d57600080fd5b50565b600081359050613d4f81613d29565b92915050565b600060208284031215613d6b57613d6a613cf3565b5b6000613d7984828501613d40565b91505092915050565b60008115159050919050565b613d9781613d82565b82525050565b6000602082019050613db26000830184613d8e565b92915050565b600081519050919050565b600082825260208201905092915050565b60005b83811015613df2578082015181840152602081019050613dd7565b60008484015250505050565b6000601f19601f8301169050919050565b6000613e1a82613db8565b613e248185613dc3565b9350613e34818560208601613dd4565b613e3d81613dfe565b840191505092915050565b60006020820190508181036000830152613e628184613e0f565b905092915050565b6000819050919050565b613e7d81613e6a565b8114613e8857600080fd5b50565b600081359050613e9a81613e74565b92915050565b600060208284031215613eb657613eb5613cf3565b5b6000613ec484828501613e8b565b91505092915050565b600073ffffffffffffffffffffffffffffffffffffffff82169050919050565b6000613ef882613ecd565b9050919050565b613f0881613eed565b82525050565b6000602082019050613f236000830184613eff565b92915050565b613f3281613eed565b8114613f3d57600080fd5b50565b600081359050613f4f81613f29565b92915050565b60008060408385031215613f6c57613f6b613cf3565b5b6000613f7a85828601613f40565b9250506020613f8b85828601613e8b565b9150509250929050565b600080fd5b600080fd5b7f4e487b7100000000000000000000000000000000000000000000000000000000600052604160045260246000fd5b613fd782613dfe565b810181811067ffffffffffffffff82111715613ff657613ff5613f9f565b5b80604052505050565b6000614009613ce9565b90506140158282613fce565b919050565b600067ffffffffffffffff82111561403557614034613f9f565b5b61403e82613dfe565b9050602081019050919050565b82818337600083830152505050565b600061406d6140688461401a565b613fff565b90508281526020810184848401111561408957614088613f9a565b5b61409484828561404b565b509392505050565b600082601f8301126140b1576140b0613f95565b5b81356140c184826020860161405a565b91505092915050565b6000806000806000806000806000806101408b8d0312156140ee576140ed613cf3565b5b60006140fc8d828e01613f40565b9a505060208b013567ffffffffffffffff81111561411d5761411c613cf8565b5b6141298d828e0161409c565b995050604061413a8d828e01613e8b565b985050606061414b8d828e01613e8b565b975050608061415c8d828e01613e8b565b96505060a061416d8d828e01613e8b565b95505060c061417e8d828e01613e8b565b94505060e08b013567ffffffffffffffff81111561419f5761419e613cf8565b5b6141ab8d828e0161409c565b9350506101008b013567ffffffffffffffff8111156141cd576141cc613cf8565b5b6141d98d828e0161409c565b9250506101208b013567ffffffffffffffff8111156141fb576141fa613cf8565b5b6142078d828e0161409c565b9150509295989b9194979a5092959850565b61422281613e6a565b82525050565b600060208201905061423d6000830184614219565b92915050565b60008060006060848603121561425c5761425b613cf3565b5b600061426a86828701613f40565b935050602061427b86828701613f40565b925050604061428c86828701613e8b565b9150509250925092565b600081519050919050565b600082825260208201905092915050565b6000819050602082019050919050565b6142cb81613e6a565b82525050565b60006142dd83836142c2565b60208301905092915050565b6000602082019050919050565b600061430182614296565b61430b81856142a1565b9350614316836142b2565b8060005b8381101561434757815161432e88826142d1565b9750614339836142e9565b92505060018101905061431a565b5085935050505092915050565b600081519050919050565b600082825260208201905092915050565b6000819050602082019050919050565b600082825260208201905092915050565b600061439c82613db8565b6143a68185614380565b93506143b6818560208601613dd4565b6143bf81613dfe565b840191505092915050565b60006101008301600083015184820360008601526143e88282614391565b91505060208301516143fd60208601826142c2565b50604083015161441060408601826142c2565b50606083015161442360608601826142c2565b50608083015161443660808601826142c2565b5060a083015161444960a08601826142c2565b5060c083015184820360c08601526144618282614391565b91505060e083015184820360e086015261447b8282614391565b9150508091505092915050565b600061449483836143ca565b905092915050565b6000602082019050919050565b60006144b482614354565b6144be818561435f565b9350836020820285016144d085614370565b8060005b8581101561450c57848403895281516144ed8582614488565b94506144f88361449c565b925060208a019950506001810190506144d4565b50829750879550505050505092915050565b6000604082019050818103600083015261453881856142f6565b9050818103602083015261454c81846144a9565b90509392505050565b60006020828403121561456b5761456a613cf3565b5b600061457984828501613f40565b91505092915050565b61458b81613eed565b82525050565b600060808301600083015184820360008601526145ae8282614391565b91505060208301516145c360208601826142c2565b50604083015184820360408601526145db8282614391565b91505060608301516145f06060860182614582565b508091505092915050565b600060408201905081810360008301526146158185613e0f565b905081810360208301526146298184614591565b90509392505050565b6000602082019050818103600083015261464c8184614591565b905092915050565b60006101008301600083015184820360008601526146728282614391565b915050602083015161468760208601826142c2565b50604083015161469a60408601826142c2565b5060608301516146ad60608601826142c2565b5060808301516146c060808601826142c2565b5060a08301516146d360a08601826142c2565b5060c083015184820360c08601526146eb8282614391565b91505060e083015184820360e08601526147058282614391565b9150508091505092915050565b6000602082019050818103600083015261472c8184614654565b905092915050565b61473d81613d82565b811461474857600080fd5b50565b60008135905061475a81614734565b92915050565b6000806040838503121561477757614776613cf3565b5b600061478585828601613f40565b92505060206147968582860161474b565b9150509250929050565b6000806000606084860312156147b9576147b8613cf3565b5b60006147c786828701613e8b565b93505060206147d886828701613f40565b925050604084013567ffffffffffffffff8111156147f9576147f8613cf8565b5b6148058682870161409c565b9150509250925092565b600067ffffffffffffffff82111561482a57614829613f9f565b5b61483382613dfe565b9050602081019050919050565b600061485361484e8461480f565b613fff565b90508281526020810184848401111561486f5761486e613f9a565b5b61487a84828561404b565b509392505050565b600082601f83011261489757614896613f95565b5b81356148a7848260208601614840565b91505092915050565b600080600080608085870312156148ca576148c9613cf3565b5b60006148d887828801613f40565b94505060206148e987828801613f40565b93505060406148fa87828801613e8b565b925050606085013567ffffffffffffffff81111561491b5761491a613cf8565b5b61492787828801614882565b91505092959194509250565b600081519050919050565b600082825260208201905092915050565b6000819050602082019050919050565b60006060830160008301516149776000860182614582565b506020830151848203602086015261498f8282614391565b91505060408301516149a460408601826142c2565b508091505092915050565b60006149bb838361495f565b905092915050565b6000602082019050919050565b60006149db82614933565b6149e5818561493e565b9350836020820285016149f78561494f565b8060005b85811015614a335784840389528151614a1485826149af565b9450614a1f836149c3565b925060208a019950506001810190506149fb565b50829750879550505050505092915050565b60006020820190508181036000830152614a5f81846149d0565b905092915050565b60008060008060808587031215614a8157614a80613cf3565b5b600085013567ffffffffffffffff811115614a9f57614a9e613cf8565b5b614aab8782880161409c565b9450506020614abc87828801613e8b565b935050604085013567ffffffffffffffff811115614add57614adc613cf8565b5b614ae98782880161409c565b9250506060614afa87828801613f40565b91505092959194509250565b60008060408385031215614b1d57614b1c613cf3565b5b6000614b2b85828601613f40565b9250506020614b3c85828601613f40565b9150509250929050565b7f4e487b7100000000000000000000000000000000000000000000000000000000600052602260045260246000fd5b60006002820490506001821680614b8d57607f821691505b602082108103614ba057614b9f614b46565b5b50919050565b7f417070726f76616c20746f2063757272656e74206f776e657200000000000000600082015250565b6000614bdc601983613dc3565b9150614be782614ba6565b602082019050919050565b60006020820190508181036000830152614c0b81614bcf565b9050919050565b7f417070726f76652063616c6c6572206973206e6f7420746f6b656e206f776e6560008201527f72206f7220617070726f76656420666f7220616c6c0000000000000000000000602082015250565b6000614c6e603583613dc3565b9150614c7982614c12565b604082019050919050565b60006020820190508181036000830152614c9d81614c61565b9050919050565b7f4e487b7100000000000000000000000000000000000000000000000000000000600052603260045260246000fd5b7f4e487b7100000000000000000000000000000000000000000000000000000000600052601160045260246000fd5b6000614d0d82613e6a565b91507fffffffffffffffffffffffffffffffffffffffffffffffffffffffffffffffff8203614d3f57614d3e614cd3565b5b600182019050919050565b7f736f727279206465617220796f7520617265206e6f7420617574686f72697a6560008201527f64206465616c6572000000000000000000000000000000000000000000000000602082015250565b6000614da6602883613dc3565b9150614db182614d4a565b604082019050919050565b60006020820190508181036000830152614dd581614d99565b9050919050565b7f4f776e6572206461746120646f6573206e6f7420657869737420706c6561736560008201527f20666972737420656e746572206f776e65722064617461000000000000000000602082015250565b6000614e38603783613dc3565b9150614e4382614ddc565b604082019050919050565b60006020820190508181036000830152614e6781614e2b565b9050919050565b7f20736f72727920746869732070726f7065727479204e667420616c726561647960008201527f2065786973740000000000000000000000000000000000000000000000000000602082015250565b6000614eca602683613dc3565b9150614ed582614e6e565b604082019050919050565b60006020820190508181036000830152614ef981614ebd565b9050919050565b60008190508160005260206000209050919050565b60006020601f8301049050919050565b600082821b905092915050565b600060088302614f627fffffffffffffffffffffffffffffffffffffffffffffffffffffffffffffffff82614f25565b614f6c8683614f25565b95508019841693508086168417925050509392505050565b6000819050919050565b6000614fa9614fa4614f9f84613e6a565b614f84565b613e6a565b9050919050565b6000819050919050565b614fc383614f8e565b614fd7614fcf82614fb0565b848454614f32565b825550505050565b600090565b614fec614fdf565b614ff7818484614fba565b505050565b5b8181101561501b57615010600082614fe4565b600181019050614ffd565b5050565b601f8211156150605761503181614f00565b61503a84614f15565b81016020851015615049578190505b61505d61505585614f15565b830182614ffc565b50505b505050565b600082821c905092915050565b600061508360001984600802615065565b1980831691505092915050565b600061509c8383615072565b9150826002028217905092915050565b6150b582613db8565b67ffffffffffffffff8111156150ce576150cd613f9f565b5b6150d88254614b75565b6150e382828561501f565b600060209050601f8311600181146151165760008415615104578287015190505b61510e8582615090565b865550615176565b601f19841661512486614f00565b60005b8281101561514c57848901518255600182019150602085019450602081019050615127565b868310156151695784890151615165601f891682615072565b8355505b6001600288020188555050505b505050505050565b600061518982613e6a565b915061519483613e6a565b92508282019050808211156151ac576151ab614cd3565b5b92915050565b7f4f776e6572206461746120646f6573206e6f742065786973742c20706c65617360008201527f6520666972737420656e746572206f776e657220646174610000000000000000602082015250565b600061520e603883613dc3565b9150615219826151b2565b604082019050919050565b6000602082019050818103600083015261523d81615201565b9050919050565b7f43616c6c6572206973206e6f7420746f6b656e206f776e6572206f722061707060008201527f726f766564000000000000000000000000000000000000000000000000000000602082015250565b60006152a0602583613dc3565b91506152ab82615244565b604082019050919050565b600060208201905081810360008301526152cf81615293565b9050919050565b7f7468657265206973206e6f2073616c65732067656e657261746564206279207460008201527f686973206465616c657200000000000000000000000000000000000000000000602082015250565b6000615332602a83613dc3565b915061533d826152d6565b604082019050919050565b6000602082019050818103600083015261536181615325565b9050919050565b7f4552433732313a20696e76616c696420746f6b656e2049440000000000000000600082015250565b600061539e601883613dc3565b91506153a982615368565b602082019050919050565b600060208201905081810360008301526153cd81615391565b9050919050565b7f4552433732313a2061646472657373207a65726f206973206e6f74206120766160008201527f6c6964206f776e65720000000000000000000000000000000000000000000000602082015250565b6000615430602983613dc3565b915061543b826153d4565b604082019050919050565b6000602082019050818103600083015261545f81615423565b9050919050565b7f74686973207265676973747279206e6f20646f6573206e6f7420657869737400600082015250565b600061549c601f83613dc3565b91506154a782615466565b602082019050919050565b600060208201905081810360008301526154cb8161548f565b9050919050565b7f736f727279207468657265206973206e6f20646174612065786973742061676160008201527f696e73742074686973207265676973747279206e6f0000000000000000000000602082015250565b600061552e603583613dc3565b9150615539826154d2565b604082019050919050565b6000602082019050818103600083015261555d81615521565b9050919050565b7f796f7520617265206e6f7420617574686f72697a656420706572736f6e000000600082015250565b600061559a601d83613dc3565b91506155a582615564565b602082019050919050565b600060208201905081810360008301526155c98161558d565b9050919050565b600081905092915050565b60008190508160005260206000209050919050565b600081546155fd81614b75565b61560781866155d0565b9450600182166000811461562257600181146156375761566a565b60ff198316865281151582028601935061566a565b615640856155db565b60005b8381101561566257815481890152600182019150602081019050615643565b838801955050505b50505092915050565b600061567f82846155f0565b915081905092915050565b600081905092915050565b60006156a082613db8565b6156aa818561568a565b93506156ba818560208601613dd4565b80840191505092915050565b60006156d28284615695565b915081905092915050565b7f736f7272792074686973206672756e63686f736520697320616c72656164792060008201527f6578697374000000000000000000000000000000000000000000000000000000602082015250565b6000615739602583613dc3565b9150615744826156dd565b604082019050919050565b600060208201905081810360008301526157688161572c565b9050919050565b60006060820190506157846000830186614219565b6157916020830185613eff565b81810360408301526157a38184613e0f565b9050949350505050565b7f4552433732313a2063616c6c6572206973206e6f7420746f6b656e206f776e6560008201527f72206f7220617070726f76656400000000000000000000000000000000000000602082015250565b6000615809602d83613dc3565b9150615814826157ad565b604082019050919050565b60006020820190508181036000830152615838816157fc565b9050919050565b7f77652061726520736f7272792063757272656e746c79206e6f206465616c657260008201527f2069732072656769737465726400000000000000000000000000000000000000602082015250565b600061589b602d83613dc3565b91506158a68261583f565b604082019050919050565b600060208201905081810360008301526158ca8161588e565b9050919050565b7f696e76616c696420746f6b656e20494400000000000000000000000000000000600082015250565b6000615907601083613dc3565b9150615912826158d1565b602082019050919050565b60006020820190508181036000830152615936816158fa565b9050919050565b60006159498285615695565b91506159558284615695565b91508190509392505050565b7f7468657265206973206e6f204e4654206d696e74656420616761696e7374207460008201527f686973207265676973747279206e756d62657200000000000000000000000000602082015250565b60006159bd603383613dc3565b91506159c882615961565b604082019050919050565b600060208201905081810360008301526159ec816159b0565b9050919050565b7f72656d696e646572206461746120616761696e7374207468697320706572736f60008201527f6e20697320616c7265616479206578697374207468616e6b7300000000000000602082015250565b6000615a4f603983613dc3565b9150615a5a826159f3565b604082019050919050565b60006020820190508181036000830152615a7e81615a42565b9050919050565b7f4552433732313a206d696e7420746f20746865207a65726f2061646472657373600082015250565b6000615abb602083613dc3565b9150615ac682615a85565b602082019050919050565b60006020820190508181036000830152615aea81615aae565b9050919050565b7f4552433732313a20746f6b656e20616c7265616479206d696e74656400000000600082015250565b6000615b27601c83613dc3565b9150615b3282615af1565b602082019050919050565b60006020820190508181036000830152615b5681615b1a565b9050919050565b7f45524337323155524953746f726167653a2055524920736574206f66206e6f6e60008201527f6578697374656e7420746f6b656e000000000000000000000000000000000000602082015250565b6000615bb9602e83613dc3565b9150615bc482615b5d565b604082019050919050565b60006020820190508181036000830152615be881615bac565b9050919050565b7f4552433732313a207472616e736665722066726f6d20696e636f72726563742060008201527f6f776e6572000000000000000000000000000000000000000000000000000000602082015250565b6000615c4b602583613dc3565b9150615c5682615bef565b604082019050919050565b60006020820190508181036000830152615c7a81615c3e565b9050919050565b7f4552433732313a207472616e7366657220746f20746865207a65726f2061646460008201527f7265737300000000000000000000000000000000000000000000000000000000602082015250565b6000615cdd602483613dc3565b9150615ce882615c81565b604082019050919050565b60006020820190508181036000830152615d0c81615cd0565b9050919050565b7f4552433732313a20617070726f766520746f2063616c6c657200000000000000600082015250565b6000615d49601983613dc3565b9150615d5482615d13565b602082019050919050565b60006020820190508181036000830152615d7881615d3c565b9050919050565b7f4552433732313a207472616e7366657220746f206e6f6e20455243373231526560008201527f63656976657220696d706c656d656e7465720000000000000000000000000000602082015250565b6000615ddb603283613dc3565b9150615de682615d7f565b604082019050919050565b60006020820190508181036000830152615e0a81615dce565b9050919050565b600081519050919050565b600082825260208201905092915050565b6000615e3882615e11565b615e428185615e1c565b9350615e52818560208601613dd4565b615e5b81613dfe565b840191505092915050565b6000608082019050615e7b6000830187613eff565b615e886020830186613eff565b615e956040830185614219565b8181036060830152615ea78184615e2d565b905095945050505050565b600081519050615ec181613d29565b92915050565b600060208284031215615edd57615edc613cf3565b5b6000615eeb84828501615eb2565b91505092915050565b7f4e487b7100000000000000000000000000000000000000000000000000000000600052601260045260246000fdfea264697066735822122072dcffa2c80e6b3e1b2f807c45c100ff8c3c9c398c1f8a435bda017d31b09bbc64736f6c63430008120033",
  "linkReferences": {},
  "deployedLinkReferences": {}
}